:100000000C9437010C945F010C945F010C945F0118
:100010000C945F010C945F010C945F010C945F01E0
:100020000C945F010C945F010C945F010C945F01D0
:100030000C945F010C945F010C945F010C945F01C0
:100040000C9458120C945F010C9426120C9400121C
:100050000C945F010C945F010C945F010C945F01A0
:100060000C945F010C945F0100407A10F35A00A0D9
:10007000724E18090010A5D4E80000E87648170071
:1000800000E40B54020000CA9A3B000000E1F505B1
:10009000000080969800000040420F000000A086FB
:1000A00001000000102700000000E803000000002D
:1000B0006400000000000A000000000001000000D1
:1000C00000002C76D888DC674F0823DFC1DFAE59EB
:1000D000E1B1B796E5E3E453C63AE651997696E87E
:1000E000E6C28426EB898C9B62ED407C6FFCEFBC02
:1000F0009C9F40F2BAA56FA5F490055A2AF75C932D
:100100006B6CF9676DC11BFCE0E40D47FEF520E662
:10011000B500D0ED902E0300943577050080841E45
:10012000080000204E0A000000C80C333333330FA0
:10013000986E12831141EF8D2114893BE65516CF3D
:10014000FEE6DB18D1844B381BF77C1D901DA4BB49
:10015000E424203284725E228100C9F124ECA1E5FE
:100160003D2741542B43495053544152543D22544E
:100170004350222C226169732E686F6E65796E651B
:10018000742E766E222C2235313030220041542BD1
:1001900043495053544152543D22544350222C223F
:1001A0006169732E686F6E65796E65742E766E2246
:1001B0002C2235313030220041542B4349505354C6
:1001C0004152543D22544350222C226169732E68BF
:1001D0006F6E65796E65742E766E222C2235313005
:1001E00030220000000000240027002A0000000048
:1001F00000250028002B000000000800020100007C
:10020000030407000000000000000041542B475386
:100210004E0041542B47534E0041542B47534E0040
:1002200041542B434349440041542B434349440028
:1002300041542B43434944000000000023002600A2
:100240002900040404040404040402020202020259
:10025000030303030303010204081020408001028A
:1002600004081020010204081020A2125B161124B9
:100270001FBECFEFD8E0DEBFCDBF23E0A4E3B2E0E6
:1002800001C01D92A333B207E1F712E0A0E0B1E094
:10029000E0E3FBE302C005900D92A433B107D9F768
:1002A00011E0C6E3D1E004C02197FE010E94741B57
:1002B000C533D107C9F70E9401130C948B1D0C9410
:1002C00000008F929F92AF92BF92CF92DF92EF92F7
:1002D000FF92CF93DF93A091120330E081113A2F68
:1002E0008091130390E0880F991FAC01485C5D4F2B
:1002F000C0901803D0901903E0901A03F0901B03EC
:1003000060E070E0CB01FA01C591D49128812A23E5
:1003100023130FC04B015C012FEF821A920AA20A2D
:10032000B20A6C157D058E059F0570F060E070E0E7
:10033000CB01DF91CF91FF90EF90DF90CF90BF90F6
:10034000AF909F908F900895C501B401DCCF0895C0
:10035000AF92BF92CF92DF92EF92FF920F931F93D3
:10036000CF93DF936C017B018B01040F151FEB0111
:100370005E01AE18BF08C017D10759F06991D601C8
:10038000ED91FC910190F081E02DC6010995892B3A
:1003900079F7C501DF91CF911F910F91FF90EF90F9
:1003A000DF90CF90BF90AF900895FC0144815581BC
:1003B000608171818EE692E00C94A801FC01538D5E
:1003C000448D252F30E0842F90E0821B930B54172F
:1003D00010F0CF96089501970895FC01918D828DBC
:1003E000981761F0A28DAE0FBF2FB11D5D968C9155
:1003F000928D9F5F9F73928F90E008958FEF9FEF94
:100400000895FC01918D828D981731F0828DE80F4F
:10041000F11D858D90E008958FEF9FEF0895FC0109
:10042000918D228D892F90E0805C9F4F821B9109D6
:100430008F73992708958EE692E00E940F0221E0C3
:10044000892B09F420E0822F089580E090E0892B29
:1004500029F00E941B0281110C9400000895FC01F8
:10046000A48DA80FB92FB11DA35ABF4F2C91848D15
:1004700090E001968F739927848FA689B7892C9372
:10048000A089B1898C91837080648C93938D848DC5
:10049000981306C00288F389E02D80818F7D8083C8
:1004A0000895EF92FF920F931F93CF93DF93EC0188
:1004B00081E0888F9B8D8C8D98131AC0E889F9890B
:1004C000808185FF15C09FB7F894EE89FF8960830E
:1004D000E889F98980818370806480839FBF81E08F
:1004E00090E0DF91CF911F910F91FF90EF900895D1
:1004F000F62E0B8D10E00F5F1F4F0F731127E02EAC
:100500008C8D8E110CC00FB607FCFACFE889F989E3
:10051000808185FFF5CFCE010E942F02F1CFEB8DB8
:10052000EC0FFD2FF11DE35AFF4FF0829FB7F894B7
:100530000B8FEA89FB8980818062CFCFCF93DF93D5
:10054000EC01888D8823B9F0AA89BB89E889F989EB
:100550008C9185FD03C0808186FD0DC00FB607FC20
:10056000F7CF8C9185FFF2CF808185FFEDCFCE0153
:100570000E942F02E9CFDF91CF910895833081F05F
:1005800028F4813099F08230A9F008958730A9F0DD
:100590008830C9F08430B1F4809180008F7D03C031
:1005A000809180008F7780938000089584B58F7745
:1005B00084BD089584B58F7DFBCF8091B0008F7787
:1005C0008093B00008958091B0008F7DF9CFCF93D4
:1005D000DF93282F30E0F901E950FE4F8491F901B3
:1005E000EA5AFD4FD491F901EE5BFD4FC491CC2343
:1005F000A1F081110E94BE02EC2FF0E0EE0FFF1F70
:10060000E85CFD4FA591B491EC91ED2381E090E081
:1006100009F480E0DF91CF91089580E090E0FACF77
:100620001F93CF93DF93282F30E0F901E950FE4F5D
:100630008491F901EA5AFD4FD491F901EE5BFD4F27
:10064000C491CC23A9F0162F81110E94BE02EC2F79
:10065000F0E0EE0FFF1FE351FE4FA591B4918FB76D
:10066000F894EC91111108C0D095DE23DC938FBF74
:10067000DF91CF911F910895DE2BF8CFCF93DF93B9
:1006800090E0FC01EA5AFD4F24918E5B9D4FFC01E6
:1006900084918823C9F090E0880F991FFC01ED51E7
:1006A000FE4FA591B491FC01E351FE4FC591D49149
:1006B00061110DC09FB7F8948C91209582238C9383
:1006C0008881282328839FBFDF91CF9108956230CE
:1006D00051F49FB7F8943C91822F809583238C939B
:1006E000E8812E2BEFCF8FB7F894EC912E2B2C9323
:1006F0008FBFEACF8E50806480937C0080917A0017
:10070000806480937A0080917A0086FDFCCF80918E
:1007100078009091790008953FB7F894809159023C
:1007200090915A02A0915B02B0915C0226B5A89B01
:1007300005C02F3F19F00196A11DB11D3FBFBA2F73
:10074000A92F982F8827BC01CD01620F711D811D33
:10075000911D42E0660F771F881F991F4A95D1F7B8
:1007600008958F929F92AF92BF92CF92DF92EF92B5
:10077000FF924B015C010E948C036B017C010E9483
:100780008C036C197D098E099F09683E73408105B1
:100790009105A8F321E0821A9108A108B10888EE1A
:1007A000C80E83E0D81EE11CF11C81149104A10441
:1007B000B10429F7FF90EF90DF90CF90BF90AF90FA
:1007C0009F908F9008952FB7F89460915502709183
:1007D000560280915702909158022FBF0895CF92F0
:1007E000DF92EF92FF920F931F93CF93DF93CDB7DA
:1007F000DEB7C054D1400FB6F894DEBF0FBECDBFF8
:100800000E94E30300911403109115032091160335
:10081000309117036B017C01C01AD10AE20AF30A76
:1008200097018601003D17402105310590F4809124
:100830001C03C05CDE4F0FB6F894DEBF0FBECDBF09
:10084000DF91CF911F910F91FF90EF90DF90CF90AC
:100850000895609314037093150380931603909387
:10086000170310920F0310920E0310920D031092B3
:100870000C0310920B0361E0809110030E9410039F
:100880006AEF70E080E090E00E94B10361E0809147
:1008900010030E943E0360E0809110030E94100349
:1008A00064E170E080E090E00E94B103F89461E0C0
:1008B000809110030E9410038BE990E00197F1F7FB
:1008C00062E0809110030E943E0383E290E0019772
:1008D000F1F780E00E946101672B682B692B29F4F6
:1008E00010921C03789480E0A4CF81E00E94610103
:1008F000672B682B692BA1F38E010F5F1F4F6E01D1
:100900008FEBC81A8EEFD80A780180E00E9461014F
:10091000F701608371838283938381E00E94610188
:10092000F7016483758386839783F8E0EF0EF11CEB
:10093000EC14FD0451F7789430E020E0F801C08019
:10094000D180E280F3804481558166817781C11432
:10095000D104E104F10429F0411551056105710547
:1009600019F410921C03BFCFF90183E0F595E795C8
:100970008A95E1F7E55FFC4F8081880FC416D506A4
:10098000E606F70610F180832F5F3F4F085F1F4F89
:100990002832310599F640910F0320910B03809185
:1009A0000C03280F3327331F80910D03280F311DAF
:1009B00080910E03820F932F911D992748171906D6
:1009C00081F681E080931C0334CF8160DCCF0F93EC
:1009D0001F930E94E30360937602709377028093E3
:1009E0007802909379028EE692E00E94ED0197FFE3
:1009F0001DC00E94E30300917602109177022091BE
:100A0000780230917902601B710B820B930B00917D
:100A10007202109173022091740230917502601776
:100A2000710782079307F8F28FEF9FEF1F910F91E5
:100A30000895FC01A081B1818C918D3021F03CF4AE
:100A400089508230A8F51196B183A083F3CF80320C
:100A5000D1F38F3209F0089511968C9111978A3253
:100A600019F08F32C1F008951196B183A083A0814F
:100A7000B181CD0101969183808311968C9111975C
:100A80008823B1F08A3299F712968C9112978F329F
:100A900071F71396D9CFA081B181CD0101969183D1
:100AA000808311968C91882319F08A30A1F7C2CFE8
:100AB00008951F93CF93DF93EC01162F0E94190521
:100AC000E881F9818081181308C03196F983E883A1
:100AD00081E0DF91CF911F91089580E0FACFEF92EE
:100AE000FF920F931F93CF93DF938C01DC01149639
:100AF000CD91DC91EA80FB808E819F81E80EF91E0A
:100B0000C80102960E941905D8011296ED91FC9138
:100B10008081873219F0823209F042C03196D801C3
:100B20001396FC93EE931297D8011296ED91FC91D7
:100B300013979081992309F462C09F012F5F3F4F63
:100B400013963C932E931297891709F458C09C353D
:100B500099F49181AEE2B1E02C91222321F092131D
:100B60001DC011969C91992309F449C03296D80171
:100B70001396FC93EE9312974E815F819A012F5F3B
:100B80003F4F6C817D816217730770F2EA81FB81B0
:100B9000E40FF51F3F832E839083C6CF1296DCCFE0
:100BA00080330CF444C08A3324F0813604F18B374F
:100BB00004F5F801228133812F5F3F4F3383228375
:100BC0004E815F819A012F5F3F4F6C817D8162175B
:100BD000730738F0EA81FB81E40FF51F3F832E8312
:100BE0008083D8011296ED91FC918081D9CF813418
:100BF000F4F08B35F4F293ED980F9230D0F22E8111
:100C00003F81C90101964C815D814817590790F0D9
:100C1000EA81FB81E20FF31F9F838E831082C7015D
:100C2000DF91CF911F910F91FF90EF9008958B323C
:100C300011F7BFCFF12CE12CF2CF8EE692E00E94AB
:100C40000F02892B29F08EE692E00E94ED01F5CF8C
:100C5000089562E370E080E090E00E94B10360E0FC
:100C600081E10E94100362E370E080E090E00E9466
:100C7000B10361E081E10E94100362E370E080E073
:100C800090E00E94B10360E081E10E94100362E302
:100C900070E080E090E00E94B10361E081E10E9499
:100CA000100362E370E080E090E00E94B10360E036
:100CB00081E10E94100362E370E080E090E00E9416
:100CC000B10361E081E10C941003FC0186819781FE
:100CD000680F791F248135812617370738F0228164
:100CE0003381820F931F77836683089590E080E0BD
:100CF00008958091440281110BC01092410210921C
:100D00004002109243021092420281E0809344021A
:100D100080E492E008958091380281110BC0109216
:100D2000350210923402109237021092360281E09E
:100D30008093380284E392E00895DB01109749F034
:100D4000ED91FC9111970190F081E02DBC01CD0156
:100D5000099490E080E00895CF92DF92EF92FF92A5
:100D60000F931F93CF93DF93EC016A017B010E94E5
:100D7000E303088119812A813B81601B710B820B7F
:100D8000930B6C157D058E059F0580F00E94E30393
:100D9000688379838A839B8381E0DF91CF911F9160
:100DA0000F91FF90EF90DF90CF90089580E0F5CF06
:100DB000FC0101900020E9F73197AF01481B590B66
:100DC000BC018EE692E00C94A8010F931F93CF9381
:100DD000DF938C01D0E0C0E0F801EC0FFD1F6491BF
:100DE000662341F08EE692E00E945102892B11F0B9
:100DF0002196F2CF8DE192E00E94D8068C0F9D1FC4
:100E0000DF91CF911F910F910895CF93DF930E94AF
:100E1000D806EC018DE192E00E94D8068C0F9D1F50
:100E2000DF91CF910895CF93DF936AE18EE692E050
:100E30000E945102EC018DE192E00E94D8068C0FD5
:100E40009D1FDF91CF9108958F929F92AF92BF9295
:100E5000CF92DF92EF92FF920F931F93CF93DF9386
:100E6000FC0101900020E9F731978F01081B190B55
:100E70007C01D0E0C0E0A9F430E020E081E0232B49
:100E800009F080E0DF91CF911F910F91FF90EF90DB
:100E9000DF90CF90BF90AF909F908F900895C1E06A
:100EA000D0E00E94E70497FD3AC0F701EC0FFD1F68
:100EB0002081022E000C330B8217930759F12097E3
:100EC00081F34F01AE012197D4012E914D01022EE5
:100ED000000C330B2817390719F0209799F7E1CF49
:100EE0002097E9F2B7016F01CC1ADD0A30E020E06B
:100EF000DB01AD90BD01D601BD906D01AB1005C009
:100F00002F5F3F4F2C173D0798F3C217D307D1F639
:100F1000EA01C7CF21960C171D0719F6ADCF2FEFA9
:100F20003FEFACCF5F926F927F928F929F92AF9282
:100F3000BF92CF92DF92EF92FF920F931F93CF93C6
:100F4000DF938C01FC0101900020E9F731973F010C
:100F5000681A790A0E94E3034B015C01C12CD12C71
:100F60007601D0E0C0E061E070E080E090E00E94B7
:100F7000B1038EE692E00E940F02892BA9F08EE663
:100F800092E00E94ED01582E0E94E3036B017C0168
:100F9000F801EC0FFD1F80812196851511F0D0E03E
:100FA000C0E06C167D0679F10E94E30368197909A7
:100FB0008A099B09613177428105910588F080E0BB
:100FC000DF91CF911F910F91FF90EF90DF90CF9025
:100FD000BF90AF909F908F907F906F905F9008959B
:100FE0000E94E3036C197D098E099F0961317742E4
:100FF0008105910508F4B7CFC114D104E104F104CF
:1010000009F4B1CFDCCF0E941D0681E0D9CFDF9279
:10101000EF92FF920F931F93CF93DF93FC01E48035
:10102000F580E114F10451F48FEF9FEFDF91CF9140
:101030001F910F91FF90EF90DF900895EC010190C8
:10104000F081E02DEE0DFF1DD08010820881198106
:10105000062E000C770BC8010E94801D0E0D1F1D6F
:10106000F801D082009701F328813981821B930B0C
:10107000DDCF0F931F93CF93DF938C01EB01FC0126
:10108000808191810097E1F0688179816115710516
:10109000A9F0428153812C813D814217530770F0A2
:1010A0000E94791D8C819D81F801958384831D8226
:1010B0001C82DF91CF911F910F9108950E94161C01
:1010C00088819981F801918380838A819B819383B0
:1010D00082838C819D8195838483198218821B82EF
:1010E0001A82E5CFCF93DF93EC0188819981009735
:1010F00011F00E94161C198218821D821C821B820C
:101100001A82DF91CF910895FC018081918100972F
:1011100011F00C94161C08950F931F93CF93DF9337
:10112000EC0188819981009759F02A813B8126172B
:10113000370730F081E0DF91CF911F910F91089533
:101140008B016F5F7F4F0E949F1C009759F099831E
:1011500088831B830A832C813D81232B59F7FC0153
:101160001082E8CF80E0E7CFEF92FF920F931F93BA
:10117000CF93DF936115710541F480E0DF91CF914A
:101180001F910F91FF90EF90089541155105B1F017
:101190007B01EC010C811D81040F151FB8010E9419
:1011A0008C08882351F3288139818C819D81B70176
:1011B000820F931F0E94791D1D830C8381E0DECF77
:1011C000CF93DF93EC01FB0101900020E9F7319709
:1011D000AF01461B570B0E94B408811103C0CE011A
:1011E0000E947208CE01DF91CF910895CF93DF93D3
:1011F000EC01FB0144815581608171810E94B4083A
:10120000811103C0CE010E947208CE01DF91CF91FF
:101210000895CF93DF9300D0CDB7DEB769831A82EC
:1012200041E050E0BE016F5F7F4F0E94B4080F9015
:101230000F90DF91CF910895EF92FF920F931F933C
:10124000CF93DF93EC017B018A01BA010E948C08E5
:1012500081110BC0CE010E947208CE01DF91CF91A7
:101260001F910F91FF90EF9008951D830C83B7019C
:10127000888199810E94791DF0CFFB0101900020A7
:10128000E9F73197AF01461B570B0C941C090F93DC
:101290001F93CF93DF93CDB7DEB762970FB6F89465
:1012A000DEBF0FBECDBF8C01CB01F80111821082D1
:1012B00013821282158214824AE0BE016F5F7F4F53
:1012C0000E948516BE016F5F7F4FC8010E943D09D5
:1012D00062960FB6F894DEBF0FBECDBFDF91CF91FF
:1012E0001F910F910895EF92FF920F931F93CF9349
:1012F000DF93CDB7DEB7A1970FB6F894DEBF0FBE70
:10130000CDBF7C01CB01BA01F7011182108213829B
:101310001282158214828E010F5F1F4F22E044E07B
:101320000E946716009789F0BC01C7010E943D0921
:10133000A1960FB6F894DEBF0FBECDBFDF91CF915F
:101340001F910F91FF90EF900895C7010E947208BE
:10135000EFCFCF93DF93EC01FB018617970749F09E
:10136000608171816115710541F0448155810E9450
:101370001C09CE01DF91CF9108950E947208F9CF28
:10138000FC011182108213821282158214820C9445
:10139000A909EF92FF921F93CF93DF93CDB7DEB7EA
:1013A0002C970FB6F894DEBF0FBECDBF7C010E9414
:1013B0001D0689E391E00E94050785E491E00E9403
:1013C000240788EB91E00E94E5068DE491E00E94FD
:1013D0009207182F882309F449C069E273E0CE010F
:1013E00001960E94C0096AE571E0CE0101960E9453
:1013F000E008B7010E94F60865E771E00E94E00886
:10140000BC01CE0107960E94C009CE0101960E9440
:10141000840864E670E080E090E00E94B1030E94DE
:101420001D0688E791E00E94050783E891E00E948D
:101430002407CE0107960E94D50188E391E00E941F
:10144000D8060E94130786E891E00E949207182FA1
:10145000882341F089E391E00E9405078EE891E03E
:101460000E942407CE0107960E948408812F2C96A3
:101470000FB6F894DEBF0FBECDBFDF91CF911F91A5
:10148000FF90EF900895EF92FF921F93CF93DF9319
:10149000CDB7DEB72C970FB6F894DEBF0FBECDBF29
:1014A0007C010E941D0689E391E00E94050785E406
:1014B00091E00E94240782E691E00E94E5068DE417
:1014C00091E00E949207182F882309F44BC069E22B
:1014D00073E0CE0101960E94C00969E971E0CE0176
:1014E00001960E94E008B7010E94F60866E771E0E5
:1014F0000E94E008BC01CE0107960E94C009CE01FF
:1015000001960E94840864E670E080E090E00E940A
:10151000B1030E941D0688E791E00E94050783E859
:1015200091E00E942407CE0107960E94D50188E32E
:1015300091E00E94D8060E94130786E891E00E947D
:101540009207182F882351F089E391E00E94050744
:101550008EE891E00E9424070E942906CE0107969A
:101560000E948408812F2C960FB6F894DEBF0FBE20
:10157000CDBFDF91CF911F91FF90EF900895FC01B7
:10158000118210821382128215821482FB01019053
:101590000020E9F73197AF01461B570B0C941C094B
:1015A0000F931F93CF93DF93EC01062F68E371E055
:1015B0000E94BF0A0E94E704002E000C110B97FD49
:1015C0000AC08017910739F0682FCE010E940909DF
:1015D0000E94E704F4CFCE01DF91CF911F910F91CC
:1015E0000895AF92BF92CF92DF92EF92FF920F9346
:1015F0001F93CF93DF936C015B017A01890124175C
:10160000350720F48F2D7901042F182F68E371E03E
:10161000C6010E94BF0AD5011496CD91DC91EC164B
:10162000FD06E0F40C171D0708F4E801D501ED9163
:10163000FC911197EC0FFD1F108110826D917C9130
:101640006E0D7F1DC60161157105A1F00E943D0957
:10165000F50180819181C80FD91F1883C601DF91E0
:10166000CF911F910F91FF90EF90DF90CF90BF909F
:10167000AF9008950E947208EBCF4F925F926F92E5
:101680007F928F929F92AF92BF92CF92DF92EF9212
:10169000FF920F931F93CF93DF93CDB7DEB7E297FF
:1016A0000FB6F894DEBF0FBECDBF0E94EF038823B4
:1016B00041F0809111038B3059F018F08551823040
:1016C00050F1812C912C90ECA92E9FE7B92E09C0E6
:1016D00060910B0370E090E080E00E94F1184B01F4
:1016E0005C0164E670E080E090E00E94B1030E943B
:1016F000EF03882349F0809111038B3069F120F0CA
:101700008551823008F45DC1C12CD12C80ECE82ECB
:101710008FE7F82E2AC060910B0370E090E080E024
:101720000E94F11820E030E040E853E40E94521992
:101730006B017C0160910C0370E090E080E00E94FE
:10174000F318A70196010E94621A2DEC3CEC4CECB8
:101750005DE30E945219C3CF60910D0370E090E0E9
:1017600080E00E94F1186B017C0164E670E080E08B
:1017700090E00E94B1038FE00E947A038C0164E63E
:1017800070E080E090E00E94B10384E10E947A035F
:101790003C0164E670E080E090E00E94B10385E1E6
:1017A0000E947A032C0164E670E080E090E00E94E1
:1017B000B103B801110F880B990B0E94F31820E0B8
:1017C00030EC4FE754E40E94CE1A20E030E048ECC1
:1017D00052E40E9452199B01AC0160E070E088EC79
:1017E00092E40E94611A6BA77CA78DA79EA7B30104
:1017F000770C880B990B0E94F31820E030EC4FE730
:1018000054E40E94CE1A20E030E048EC52E40E94FA
:1018100052199B01AC0160E070E088EC92E40E94F8
:10182000611A6FA778AB89AB9AABB201550C880BE4
:10183000990B0E94F31820E030EC4FE754E40E942B
:10184000CE1A20E030E048EC52E40E9452199B018D
:10185000AC0160E070E088EC92E40E94611A2B0118
:101860003C01A5019401C501B4010E946F1B8111C7
:10187000D3C0A7019601C701B6010E946F1B811159
:10188000CBC0B301A201CE014F960E9473094FA5B0
:1018900058A969A97AA9CE0149960E9473094BA556
:1018A0005CA56DA57EA5CE0143960E947309B70184
:1018B000A601CE010D960E947309B501A401CE01C7
:1018C00007960E94730968EA71E0CE0101960E94B2
:1018D000BF0ABE01695F7F4FCE0101960E94F608E4
:1018E00062EB71E00E94E008BE01635F7F4F0E94DF
:1018F000F6086EEB71E00E94E008BE016D5E7F4F5E
:101900000E94F6086AEC71E00E94E008BE01675E82
:101910007F4F0E94F60866ED71E00E94E008BE016C
:10192000615E7F4F0E94F60860EB71E00E94E00864
:10193000BC01CE0185960E94C009CE0101960E948D
:101940008408CE0107960E948408CE010D960E945D
:101950008408CE0143960E948408CE0149960E94D5
:101960008408CE014F960E948408BE016B5D7F4FB4
:10197000CE0101960E94C009CE0101960E94C909BC
:10198000182FCE0101960E948408CE0185960E94F0
:101990008408812FE2960FB6F894DEBF0FBECDBF4C
:1019A000DF91CF911F910F91FF90EF90DF90CF903B
:1019B000BF90AF909F908F907F906F905F904F906F
:1019C000089510910D03612F6F7770E090E080E033
:1019D0000E94F31820E030E040E853E40E945219DE
:1019E0006B017C0160910E0370E090E080E00E944A
:1019F000F318A70196010E94621A2DEC3CEC4CEC06
:101A00005DE30E9452196B017C0117FFAECEF7FA1D
:101A1000F094F7F8F094A9CEB301A201CE01499653
:101A20000E9473094FA558A969A97AA9CE014396C6
:101A30000E9473094BA55CA56DA57EA5CE010D96F0
:101A40000E94730960EC71E0CE0107960E94BF0A04
:101A5000BE01635F7F4FCE0107960E94F6086AECD5
:101A600071E00E94E008BE016D5E7F4F0E94F608A3
:101A700066ED71E00E94E008BE01675E7F4F0E9444
:101A8000F60860EB71E00E94E008BC01CE0101960F
:101A90000E94C009CE0107960E948408CE010D96CF
:101AA0000E948408CE0143960E948408CE01499684
:101AB0000E948408BE016F5F7F4FCE0107960E948F
:101AC000C009CE0107960E94C909182FCE010796BA
:101AD0000E948408CE0101965ACF0F931F93CF9393
:101AE000DF938B01FC01C281D381209759F06A8179
:101AF0007B81C8010E94701D892B21F00990D8813B
:101B0000C02DF3CFCE01DF91CF911F910F9108959A
:101B10000E946D0D009749F0FC012481358126302B
:101B2000310519F48681978108950C948B06AF9244
:101B3000BF92CF92DF92EF92FF920F931F93CF93BA
:101B4000DF9300D000D000D0CDB7DEB76C01DC0150
:101B5000ED90FC90B70184E090E00E949D068C011E
:101B6000009709F486C0FC01F182E08213821282A0
:101B70007601F2E0EF0EF11C6BE7C7010E945905F8
:101B8000882309F461C06DE7C7010E9459058111DE
:101B90005EC0C6010E946F055C01892B09F454C028
:101BA0006AE3C7010E945905882309F44DC01A82CF
:101BB0001982BE016F5F7F4FC6010E943D0E8823D0
:101BC00009F442C0B501C8010E946D0D009739F5B6
:101BD000D8016D917C918AE090E00E949D0600976B
:101BE00029F0FC011182108215821482D80112960C
:101BF000ED91FC91309729F4F8019383828308C01A
:101C0000F9012081318121153105D1F7918380833C
:101C10000097D1F0DC011396BC92AE92129726E0A9
:101C2000FE013196DC01149601900D922A95E1F7A0
:101C30006DE7C7010E945905811109C06CE2C70117
:101C40000E9459058111A5CF0E9479068C01C80117
:101C500026960FB6F894DEBF0FBECDBFDF91CF91B1
:101C60001F910F91FF90EF90DF90CF90BF90AF90BA
:101C700008950E9479068C017BCF8F929F92AF923C
:101C8000BF92CF92DF92EF92FF920F931F93CF9369
:101C9000DF9300D000D000D0CDB7DEB7FC01968135
:101CA000F12C992309F4A5C06B018F019150968303
:101CB0005F0182E0A80EB11CC5010E941905D80180
:101CC0001296ED91FC9180818B3501F18B3709F4EF
:101CD000AEC0FF24F394873219F0823209F0F12C60
:101CE000C8010E946F05009709F47BC021E030E035
:101CF000FF2009F4A6C022E030E0D60111963C9303
:101D00002E9313969C938E9312976CC0F80180804B
:101D10009180B40184E090E00E949D067C010097D0
:101D200009F495C0DC0111969C928E9213961C9238
:101D30001E9212976BE5C5010E945905882309F48C
:101D400048C06DE5C5010E945905811145C01A8240
:101D50001982BE016F5F7F4FC8010E943D0E88232C
:101D6000C1F1F7016081718188E090E00E949D06D9
:101D7000DC01892B39F011961C921E9213961C924D
:101D80001E921297F701228133812115310521F42A
:101D9000B383A28308C09C01F901808191810097DF
:101DA000D1F7B183A0831097A1F086E0FE013196B0
:101DB000129601900D928A95E1F76DE5C5010E949A
:101DC0005905811109C06CE2C5010E9459058111B4
:101DD000BECF0E948B067C01D7018D919C91892BEF
:101DE000E1F4F12CD80116968C9116978F5F169618
:101DF0008C938F2D26960FB6F894DEBF0FBECDBF05
:101E0000DF91CF911F910F91FF90EF90DF90CF90D6
:101E1000BF90AF909F908F90089586E090E0F6017C
:101E200091838083F382E282FF24F394DBCFC801A5
:101E30000E94970DDC012D913C91232B91F227E01C
:101E400030E0F6013183208393838283EDCF0E94BB
:101E50008B067C016FCF5F926F927F928F929F92E1
:101E6000AF92BF92CF92DF92EF92FF920F931F93A8
:101E7000CF93DF93CDB7DEB7C55FD1090FB6F89426
:101E8000DEBF0FBECDBF0E941D068E010F5F1F4F2C
:101E900088E0D8011D928A95E9F72CE4E22E22E031
:101EA000F22E34E1A32E31E0B32E3801D12CC12C17
:101EB000F701819091907F01D5015D905D01852DA5
:101EC0000E94E7028816990619F0CC24C394D12CFD
:101ED000852D0E94E702F301819391933F01F4E580
:101EE000EF16F2E0FF0621F7CA94CD2809F08AC068
:101EF000EF80F884B701CE0188529F4F0E944709B6
:101F0000CD80DE80B601CE0182529F4F0E944709EC
:101F1000AB80BC80B501CE018C519F4F0E94470918
:101F200089809A80B401CE0186519F4F0E94470953
:101F300062EE71E0CE0180519F4F0E94BF0ABE0148
:101F400066517F4FCE0180519F4F0E94F6086DEE83
:101F500071E00E94E008BE016C517F4F0E94F608BC
:101F60006DEE71E00E94E008BE0162527F4F0E9458
:101F7000F6086DEE71E00E94E008BE0168527F4FE6
:101F80000E94F6086FEE71E00E94E008BC01CE01ED
:101F90008F529F4F0E94C009CE018F529F4F0E94C7
:101FA000430A782ECE018F529F4F0E948408CE01A3
:101FB00080519F4F0E948408CE0186519F4F0E94FE
:101FC0008408CE018C519F4F0E948408CE0182521A
:101FD0009F4F0E948408CE0188529F4F0E94840820
:101FE000772081F090924D0280924C02B0924F0285
:101FF000A0924E02D0925102C0925002F09253022F
:10200000E092520289E391E00E94050785E491E0A5
:102010000E9424078DE891E00E94E5068DE491E09E
:102020000E949207F82E882309F49EC169E273E0AA
:10203000C8010E94C00961EF71E0C8010E94E00878
:10204000BC01CE018C519F4F0E94C009C8010E9463
:1020500084080E941D0688E791E00E94050783E836
:1020600091E00E942407CE018C519F4F0E94D50120
:1020700088E391E00E94D8060E9413076DE7CE0125
:1020800082529F4F0E94D00A6DE5CE0182529F4F2F
:102090000E94070801966C01CE51DF4F888199811B
:1020A000C25ED040892B81F0C252DF4FA880B98038
:1020B000CE5DD0406BE770E0C5010E94651DAC01AC
:1020C0004A195B09892B11F44FEF5FEF9601BE01AE
:1020D00062527F4FCE0188529F4F0E94F10A6DE7F6
:1020E000CE0188529F4F0E94090989E391E00E9426
:1020F00005078EE891E00E942407CE0109969C8393
:102100008B8388EC90E09E838D8318861F828EE0FF
:1021100091E09A838983C852DF4F88819981C85D95
:10212000D040009711F488E391E0CF52DF4F19833C
:102130000883C15DD040CD52DF4F99838883C35D52
:10214000D040CB52DF4F19830883C55DD0408AE071
:10215000C952DF4F8883C75DD040CE018F529F4F59
:102160000E94970D8C01DC018D919C91892B09F4C3
:10217000ECC06CEF71E0C8010E946D0DFC01892B71
:1021800009F483C0848195818330910598F5019786
:1021900008F47BC00680F781E02D309709F475C004
:1021A000808121E030E040E050E08437A9F18B32BB
:1021B00009F45EC08D3209F05CC03196EF2C20E04E
:1021C00030E0A901D19080ED8D0D8A3008F053C028
:1021D000AAE0B0E00E94101A2D2DDD0C330B205325
:1021E0003109032E000C440B550B260F371F481FD7
:1021F000591FE8CF8530910558F0059769F1668140
:102200007781808591850E94401B9B01AC0104C0B1
:102210002681378140855185A8EEB3E00E94101ACF
:102220006093000170930101809302019093030178
:1022300065E072E0C8010E94880DDC011296ED9104
:10224000FC91D12CC12C309721F1BFEFCB1ADB0AC6
:102250000190F081E02DF7CF86819781A085B1852F
:1022600022273327A901281B390B4A0B5B0BD4CF3C
:102270003196E12CA4CFEE2079F25095409530951F
:1022800021953F4F4F4F5F4FC7CF20E030E0A9016E
:10229000C3CF65E072E0C8010E946D0D0097A9F000
:1022A000FC01248135812730310579F486819781BD
:1022B000DC011296ED91FC9190E080E0309741F0C6
:1022C00001960190F081E02DF9CF0E947906F0CFC0
:1022D000C80ED91E1C141D04B4F5E12C8AE0782E1A
:1022E000AE2CB12CAC14BD0474F5B3E0BE15F0F007
:1022F000450165E072E0C8010E94880DDC0112967C
:10230000ED91FC913097E9F08114910409F444C0F7
:102310000190F081E02DB1E08B1A9108F3CF648138
:10232000F501E05FFE4F80810E941003E394D8CF57
:1023300064816195F5CF319690E047C09111F9CF56
:10234000EFCF60E0EDCF0E942906CE0188529F4F6B
:102350000E948408CE0182529F4F0E948408CE01C1
:102360008C519F4F0E9484088F2DCB50DF4F0FB6AA
:10237000F894DEBF0FBECDBFDF91CF911F910F91BB
:10238000FF90EF90DF90CF90BF90AF909F908F9095
:102390007F906F905F900895828193818330910543
:1023A00008F5019770F20480F581E02D309749F22D
:1023B000808161E0843709F4B3CF8B3209F4BBCF5D
:1023C0008D3209F0B9CF31969F2D60E0819120EDDB
:1023D000280F2A3008F0B2CF679D800D1124682F96
:1023E0006053F4CF8530910508F499CF059709F42F
:1023F0009FCF64817581868197810E94401B90CF19
:102400001F920F920FB60F9211242F933F934F9369
:102410005F936F937F938F939F93AF93BF93EF934C
:10242000FF938EE692E00E942F02FF91EF91BF9101
:10243000AF919F918F917F916F915F914F913F915C
:102440002F910F900FBE0F901F9018951F920F9213
:102450000FB60F9211242F938F939F93EF93FF93B7
:10246000E0917E02F0917F028081E0918402F09100
:10247000850282FD1BC09081809187028F5F8F73E0
:1024800020918802821741F0E0918702F0E0E25942
:10249000FD4F958F80938702FF91EF919F918F91D0
:1024A0002F910F900FBE0F901F9018958081F4CF41
:1024B0001F920F920FB60F9211242F933F938F9379
:1024C0009F93AF93BF938091550290915602A09134
:1024D0005702B09158023091540223E0230F2D3758
:1024E00058F50196A11DB11D209354028093550209
:1024F00090935602A0935702B093580280915902CC
:1025000090915A02A0915B02B0915C020196A11DCC
:10251000B11D8093590290935A02A0935B02B0932D
:102520005C02BF91AF919F918F913F912F910F903E
:102530000FBE0F901F90189526E8230F0296A11D3D
:10254000B11DD2CFEEE6F2E01382128288EE93E064
:10255000A0E0B0E084839583A683B7838CE191E00B
:102560009183808385EC90E09587848784EC90E06C
:102570009787868780EC90E0918B808B81EC90E050
:10258000938B828B82EC90E0958B848B86EC90E031
:10259000978B868B118E128E138E148E68E371E0EA
:1025A00089E293E00E94BF0A68E371E083E293E06E
:1025B0000E94BF0A68E371E08DE193E00E94BF0AC8
:1025C000ABE0B3E08EE015968C93159785E11696F7
:1025D0008C931697E4E6F2E0E4911796EC93179744
:1025E000E0E5F2E0E4911896EC93189740E85EE39A
:1025F00060E070E01D964D935D936D937C935097D2
:102600000895CF93DF93CDB7DEB768970FB6F894F0
:10261000DEBF0FBECDBF789484B5826084BD84B523
:10262000816084BD85B5826085BD85B5816085BDCD
:1026300080916E00816080936E0010928100809185
:10264000810082608093810080918100816080930D
:102650008100809180008160809380008091B10032
:1026600084608093B1008091B00081608093B0005D
:1026700080917A00846080937A0080917A008260F1
:1026800080937A0080917A00816080937A008091B3
:102690007A00806880937A001092C10060E08FE039
:1026A0000E943E0360E084E10E943E0360E085E119
:1026B0000E943E0362E089E00E943E0362E088E0FF
:1026C0000E943E0362E087E00E943E0362E086E0F3
:1026D0000E943E0361E081E10E943E0361E081E1EE
:1026E0000E94100368EB7BE080E090E00E94B10361
:1026F00060E081E10E941003E0917E02F0917F0290
:1027000082E08083E0917A02F0917B021082E09176
:102710007C02F0917D028FEC808310928602E09122
:102720008202F091830286E08083E0918002F09142
:102730008102808180618083E0918002F09181023A
:10274000808188608083E0918002F09181028081A5
:1027500080688083E0918002F091810280818F7D8A
:10276000808361E08DE00E943E0361E08CE00E9486
:102770003E0361E082E00E943E0361E083E00E944C
:102780003E0361E084E00E943E0361E085E00E9438
:102790003E039BE8E92E91E0F92E20E0C22E20E0D6
:1027A000D22E60E08DE00E94100361E08CE00E9478
:1027B00010036CED75E080E090E00E94B10361E0F1
:1027C0008DE00E94100368EE73E080E090E00E94CC
:1027D000B10361E08CE00E94100368EE73E080E0DA
:1027E00090E00E94B10360E08CE00E9410030E9420
:1027F000E30360935E0270935F02809360029093A4
:1028000061028AE092E00E94050784E192E00E9462
:102810002407811117C064E670E080E090E00E9418
:10282000B1038AE092E00E94050740E65AEE60E0BC
:1028300070E08EE592E00E94AC06882331F30C94A0
:102840000000E3CF0E94E30360935E0270935F0297
:10285000809360029093610289E192E00E94E50614
:1028600084E991E00E942407811117C064E670E0BA
:1028700080E090E00E94B10382E192E00E94E506D0
:1028800040E157E260E070E08EE592E00E94AC0625
:10289000882331F30C940000E3CF64E670E080E01D
:1028A00090E00E94B1030E941D068BE092E00E941E
:1028B000E5066E2DCE0143960E94D00A6BE4CE0150
:1028C00043960E9407088C016BE4CE0143960E9458
:1028D0000708980125503109AC0144515109BE0146
:1028E0006D5E7F4FCE0101960E94F10ABE016F5FBF
:1028F0007F4FCE0143960E943908CE0101960E9477
:102900008408BE016D5E7F4F83E293E00E94A909B7
:102910002F89388D43E050E0BE016D5E7F4FCE01C0
:1029200001960E94F10ABE016F5F7F4FCE01439670
:102930000E943908CE0101960E9484088F89988DE3
:102940000C9709F0B3C0BE016D5E7F4FCE010D96AE
:102950000E94C00968E371E0CE0107960E94BF0A99
:1029600010E000E089899A890817190708F04CC01F
:10297000ED85FE85309709F044C010925D02EDE5CB
:10298000F2E0B080BE01695F7F4FCE0101960E94E8
:10299000C0096B2DCE0101960E940909811104C066
:1029A000CE0101960E947208BE016F5F7F4FCE017B
:1029B00007960E94A909CE0101960E9484080F5F24
:1029C0001F4F00FDCFCFBE01695F7F4FCE01019643
:1029D0000E94C0096AE3CE0101960E940909811193
:1029E00004C0CE0101960E947208BE016F5F7F4F46
:1029F000CE0107960E94A909CE0101960E94840883
:102A0000B1CFE00FF11FBDCF2B853C85C9010197E8
:102A10008217930738F4EF81F885E80FF91F9C8738
:102A20008B871082BE01695F7F4F89E293E00E942D
:102A3000A909CE0107960E948408CE010D960E9436
:102A40008408CE0143960E94840864E670E080E02A
:102A500090E00E94B1030E94E30360935E027093D2
:102A60005F02809360029093610280E392E00E9493
:102A7000E50684E991E00E94240781111AC064E60A
:102A800070E080E090E00E94B10388E292E00E9452
:102A9000E50640E157E260E070E08EE592E00E94DA
:102AA000AC06882331F30C940000E3CF0C940000B3
:102AB000C8CF64E670E080E090E00E94B1030E941D
:102AC0001D0680E292E00E94E5066E2DCE0107967B
:102AD0000E94D00A6BE4CE0107960E9407088C0181
:102AE0006BE4CE0107960E94070898012550310932
:102AF000AC0149515109BE01695F7F4FCE0101967A
:102B00000E94F10ABE016F5F7F4FCE0107960E94BF
:102B10003908CE0101960E9484088B859C854497D4
:102B200009F089C0BE01695F7F4F8DE193E00E948B
:102B3000A909CE0107960E94840861E081E10E9404
:102B400010030E94E30360936A0270936B02809308
:102B50006C0290936D020E94E3036093660270938F
:102B6000670280936802909369020E94E303609376
:102B7000620270936302809364029093650260E244
:102B800072E0CE0107960E94BF0A6DE173E0CE01AC
:102B900007960E94F60868E272E00E94E00863E28D
:102BA00073E00E94F60860EB71E00E94E008BC014F
:102BB000CE0101960E94C009CE0101960E94430AEF
:102BC000CE0101960E948408CE0107960E948408D7
:102BD0000E942B0F0E943D0B48EE53E060E070E036
:102BE0008AE692E00E94AC06811128C04091000163
:102BF000509101016091020170910301440F551F32
:102C0000661F771F86E692E00E94AC06811126C0FF
:102C10004091000150910101609102017091030106
:102C200082E692E00E94AC068823B1F20E943D0B3E
:102C30008111D2CF07C00C9400007BCF0E942B0FD4
:102C40008111D4CFC114D10409F4ABCD0E941B0271
:102C5000882309F4A6CD0E940000A3CD60E272E0B3
:102C6000CE0107960E94BF0A6DE173E0CE01079680
:102C70000E94F60868E272E00E94E00863E273E0F6
:102C80000E94F60860EB71E00E94E008BC01CE01F2
:102C900001960E94C009CE0101960E94430A182F96
:102CA000CE0101960E948408CE0107960E948408F6
:102CB0001111AECFC7CF8DE193E00E94840883E26B
:102CC00093E00E94840889E293E00C948408EF92D8
:102CD0000F931F93CF93DF93E80134E047FD34E176
:102CE000042E000C550B57FF03C051954195510917
:102CF000E32E022F242FAE010E94AA16CE01DF91EF
:102D0000CF911F910F91EF900895BB274A3031F476
:102D1000992322F4BDE2909581959F4F0C949116D2
:102D2000BB27FB015527AA27880F991FAA1FA417A5
:102D300010F0A41B83955051B9F7A05DAA3308F099
:102D4000A95DA193009779F7B111B1931192CB01CD
:102D50000C94E118A9E0B0E0E0EBF6E10C94211A44
:102D60006A01F22EB02E102FFBE3AF2EA01608F44E
:102D70001BE31F5F012F27E0AE014F5F5F4F0E94F3
:102D80000918BC018981982F9970913009F43FC0CE
:102D90009BE2E1FC04C09E2D9170E0FC3AC05E2DE8
:102DA0005071E82FE87083FF46C084E0911101C0A4
:102DB00083E0EF2DE81B8F1508F0E0E0D6018E2FA1
:102DC00020E2552351F1992329F0D6019C93C601A5
:102DD00001966C0196012D5F3F4FE2FE24C08EE408
:102DE000D6018C9391E411969C93119712968C9333
:102DF000D9018E2F90E281111BC0E20FF32FF11D3C
:102E000010828EEF9FEF2996ECE00C943D1A9DE224
:102E1000C6CF90E2C4CF2D9381508111FCCFCE0E4E
:102E2000D11CE0E0D0CF8EE6D6018C9391E6DBCFCB
:102E30009D938150E0CF482F447082FF3DC084E0D5
:102E4000911101C083E08F1510F4EF2DE81BD6011E
:102E50008E2F20E2552309F1992329F0D6019C9366
:102E6000C60101966C0196012D5F3F4FE2FE1BC02B
:102E700089E4D6018C938EE411968C93119786E4A5
:102E800012968C93D9018E2F90E2882309F4B5CF46
:102E90009D938150FACF2D9381508111FCCFCE0E9E
:102EA000D11CE0E0D9CF89E6D6018C938EE611964D
:102EB0008C93119786E6E4CF9B0177FF02C030E048
:102EC00020E0A1E0B0E0911102C0B0E0A0E0F90183
:102ED0003196AE0FBF1F8B2C912CBB2009F461C023
:102EE0005401EFEFAE1ABE0AAA0DBB1DFA161B065F
:102EF00019F014F04F2D4A1B511188C0E3FC59C042
:102F00007601A42FB0E2A1114FC0C40ED11C9923A9
:102F100009F45BC040E0D6011196F60190836D0183
:102F2000552309F448C0012F060F9A81582F50717C
:102F300084FF03C0913309F4015010160CF047C010
:102F4000093008F008E0EEE2FE2E5B01A01AB1089D
:102F500085019194819491082F3F320729F4D6017D
:102F6000FC92F60131966F016217730794F1021714
:102F700013077CF5DB01A21BB30BAA24A394B12C8D
:102F8000AC0EBD1EAA0DBB1D11968C9121503109AE
:102F9000D601119628153905F4F0F60180836D01EC
:102FA000DBCFB12CA12CA0CFF701B1937F01A150B1
:102FB000AACF9111B0CFD601942F50E302C05D93F8
:102FC00091509111FCCFC40ED11C40E0ACCF01E078
:102FD000BACF80E3DBCF6217730731F4963388F4FE
:102FE000953311F4552369F0F6018083FD01842F98
:102FF00090E2811108C0A40FB11D1C9290E080E006
:1030000002CF81E3F1CF91938150F3CF911183CF20
:103010008ACF283008F027E03327DA01990F311DD5
:1030200087FD916000966105710539F432602E5F6D
:103030003D9330E32A95E1F708959F3F30F08038C3
:103040007105610509F03C5F3C5F3D93913008F0EC
:103050008068911DDF93CF931F930F93FF92EF92A0
:10306000192F987F9695E92F96959695E90FFF274A
:10307000EE53FF4F99273327EE24FF24A701E701E2
:1030800005900894079428F4360FE71EF81E491F90
:10309000511D660F771F881F991F0694A1F7059091
:1030A000079428F4E70EF81E491F561FC11D770F1D
:1030B000881F991F661F0694A1F70590079428F4AE
:1030C000F80E491F561FC71FD11D880F991F661F75
:1030D000771F0694A1F70590079420F4490F561F17
:1030E000C71FD81F990F661F771F881F0694A9F75F
:1030F00084911095177041F0D695C79557954795CF
:10310000F794E7941A95C1F7E8E6F0E06894159013
:10311000159135916591959105907FE27395E11830
:10312000F10A430B560BC90BD009C0F7E10CF11E95
:10313000431F561FC91FD01D7EF4703311F48A95AA
:10314000E6CFE894015030F0080F0AF40027021788
:1031500008F4202F2395022F7A3328F079E37D930A
:103160002A95E9F710C07D932A9589F606949795DC
:103170006795379517951794E118F10A430B560B8D
:10318000C90BD00998F023957E9173957A3308F096
:1031900070E37C932013B8F77E9170617D9330F0DB
:1031A000839571E37D9370E32A95E1F71124EF9005
:1031B000FF900F911F91CF91DF91992787FD9095F7
:1031C0000895DC01FC01672F71917723E1F73297B5
:1031D00004C07C916D9370836291AE17BF07C8F3F2
:1031E0000895E89409C097FB3EF4909580957095FA
:1031F00061957F4F8F4F9F4F9923A9F0F92F96E943
:10320000BB279395F695879577956795B795F111B7
:10321000F8CFFAF4BB0F11F460FF1BC06F5F7F4F54
:103220008F4F9F4F16C0882311F096E911C0772366
:1032300021F09EE8872F762F05C0662371F096E86F
:10324000862F70E060E02AF09A95660F771F881F3E
:10325000DAF7880F9695879597F90895990F0008E2
:10326000550FAA0BE0E8FEEF16161706E807F90758
:10327000C0F012161306E407F50798F0621B730BF3
:10328000840B950B39F40A2661F0232B242B252B74
:1032900021F408950A2609F4A140A6958FEF811D17
:1032A000811D08950E9465190C94D6190E94C819B1
:1032B00038F00E94CF1920F0952311F00C94BF191B
:1032C0000C94C51911240C940A1A0E94E71970F382
:1032D000959FC1F3950F50E0551F629FF001729FBB
:1032E000BB27F00DB11D639FAA27F00DB11DAA1FCA
:1032F000649F6627B00DA11D661F829F2227B00D17
:10330000A11D621F739FB00DA11D621F839FA00DA1
:10331000611D221F749F3327A00D611D231F849FF1
:10332000600D211D822F762F6A2F11249F57504048
:103330009AF0F1F088234AF0EE0FFF1FBB1F661FC3
:10334000771F881F91505040A9F79E3F510580F08C
:103350000C94BF190C940A1A5F3FE4F3983ED4F31F
:10336000869577956795B795F795E7959F5FC1F730
:10337000FE2B880F911D9695879597F9089597F9DB
:103380009F6780E870E060E008959FEF80EC08950B
:1033900000240A9416161706180609060895002434
:1033A0000A9412161306140605060895092E0394AE
:1033B000000C11F4882352F0BB0F40F4BF2B11F422
:1033C00060FF04C06F5F7F4F8F4F9F4F089557FD81
:1033D0009058440F551F59F05F3F71F04795880F83
:1033E00097FB991F61F09F3F79F08795089512161A
:1033F00013061406551FF2CF4695F1DF08C01616C6
:1034000017061806991FF1CF869571056105089476
:103410000895E894BB2766277727CB0197F908958D
:103420000E94521AA59F900DB49F900DA49F800DED
:10343000911D112408952F923F924F925F926F92A7
:103440007F928F929F92AF92BF92CF92DF92EF9234
:10345000FF920F931F93CF93DF93CDB7DEB7CA1BB5
:10346000DB0B0FB6F894DEBF0FBECDBF09942A88E0
:10347000398848885F846E847D848C849B84AA8488
:10348000B984C884DF80EE80FD800C811B81AA8115
:10349000B981CE0FD11D0FB6F894DEBF0FBECDBFE0
:1034A000ED010895A29FB001B39FC001A39F700DCD
:1034B000811D1124911DB29F700D811D1124911D3C
:1034C00008955058BB27AA270E94791A0C94D61940
:1034D0000E94C81938F00E94CF1920F039F49F3F9C
:1034E00019F426F40C94C5190EF4E095E7FB0C943E
:1034F000BF19E92F0E94E71958F3BA17620773073B
:103500008407950720F079F4A6F50C94091A0EF4B7
:10351000E0950B2EBA2FA02D0B01B90190010C01E3
:10352000CA01A0011124FF27591B99F0593F50F4FB
:10353000503E68F11A16F040A22F232F342F442753
:10354000585FF3CF469537952795A795F04053954B
:10355000C9F77EF41F16BA0B620B730B840BBAF01B
:103560009150A1F0FF0FBB1F661F771F881FC2F786
:103570000EC0BA0F621F731F841F48F4879577959A
:103580006795B795F7959E3F08F0B0CF9395880F54
:1035900008F09927EE0F9795879508950E94E21AF3
:1035A0000C94D6190E94CF1958F00E94C81940F007
:1035B00029F45F3F29F00C94BF1951110C940A1A99
:1035C0000C94C5190E94E71968F39923B1F35523A8
:1035D00091F3951B550BBB27AA2762177307840726
:1035E00038F09F5F5F4F220F331F441FAA1FA9F3BC
:1035F00035D00E2E3AF0E0E832D091505040E695AA
:10360000001CCAF72BD0FE2F29D0660F771F881F0A
:10361000BB1F261737074807AB07B0E809F0BB0BFD
:10362000802DBF01FF2793585F4F3AF09E3F510511
:1036300078F00C94BF190C940A1A5F3FE4F3983E9B
:10364000D4F3869577956795B795F7959F5FC9F7FA
:10365000880F911D9695879597F90895E1E0660F7B
:10366000771F881FBB1F621773078407BA0720F0F4
:10367000621B730B840BBA0BEE1F88F7E09508955D
:103680000E94EF1988F09F5798F0B92F9927B751EA
:10369000B0F0E1F0660F771F881F991F1AF0BA95F6
:1036A000C9F714C0B13091F00E94091AB1E0089531
:1036B0000C94091A672F782F8827B85F39F0B93F23
:1036C000CCF3869577956795B395D9F73EF49095A9
:1036D0008095709561957F4F8F4F9F4F08950E9401
:1036E0002E19880B990B0895EE0FFF1F0590F4918A
:1036F000E02D09940F931F93CF93DF9382309105B0
:1037000010F482E090E0E0913103F091320330E078
:1037100020E0B0E0A0E0309799F42115310509F4DC
:103720004AC0281B390B24303105D8F58A819B818A
:103730006115710589F1FB0193838283FE0111C03C
:10374000408151810281138148175907E0F04817E1
:10375000590799F4109761F012960C9312971396EB
:103760001C933296CF01DF91CF911F910F91089555
:103770000093310310933203F4CF2115310551F03A
:103780004217530738F0A901DB019A01BD01DF019F
:10379000F801C1CFEF01F9CF909332038093310349
:1037A000CDCFFE01E20FF31F819391932250310997
:1037B00039832883D7CF20912F0330913003232BD7
:1037C00041F420910601309107013093300320939A
:1037D0002F0320910401309105012115310541F499
:1037E0002DB73EB74091080150910901241B350BBC
:1037F000E0912F03F0913003E217F307A0F42E1BA2
:103800003F0B2817390778F0AC014E5F5F4F241744
:10381000350748F04E0F5F1F5093300340932F033E
:10382000819391939FCFF0E0E0E09CCFCF93DF9323
:103830000097E9F0FC01329713821282A0913103C4
:10384000B0913203ED0130E020E01097A1F4208127
:103850003181820F931F20912F033091300328175D
:10386000390709F061C0F0933003E0932F03DF9133
:10387000CF910895EA01CE17DF07E8F54A815B8111
:103880009E0141155105B1F7E901FB83EA83499196
:103890005991C40FD51FEC17FD0761F48081918108
:1038A0000296840F951FE901998388838281938111
:1038B0009B838A83F0E0E0E012968D919C911397B0
:1038C0000097B9F52D913C911197CD010296820F89
:1038D000931F20912F03309130032817390739F6B1
:1038E000309751F51092320310923103B0933003A8
:1038F000A0932F03BCCFD383C28340815181840F17
:10390000951FC817D90761F44E5F5F4F8881998171
:10391000480F591F518340838A819B8193838283FF
:103920002115310509F0B0CFF0933203E093310354
:103930009ECFFD01DC01C0CF13821282D7CFB0E051
:10394000A0E0E5EAFCE10C941D1A8C01009751F40B
:10395000CB010E947A1B8C01C801CDB7DEB7E0E134
:103960000C94391AFC01E60FF71F9C012250310913
:10397000E217F30708F49DC0D901CD91DC911197AE
:10398000C617D70798F0C530D10530F3CE0104979C
:103990008617970708F3C61BD70B2297C193D193BD
:1039A0006D937C93CF010E94161CD6CF5B01AC1A9D
:1039B000BD0A4C018C0E9D1EA0913103B0913203C3
:1039C000512C412CF12CE12C109731F580912F03D3
:1039D000909130038815990509F05CC0461657068A
:1039E00008F058C08091040190910501009741F4BE
:1039F0008DB79EB74091080150910901841B950B2A
:103A0000E817F90708F055C0F0933003E0932F034F
:103A1000F90171836083A0CF8D919C9111971296CB
:103A20006C90129713967C901397A815B90559F5C9
:103A30006C0142E0C40ED11CCA14DB0420F1AC01BD
:103A40004A195B09DA011296159780F06282738237
:103A500051834083D9016D937C93E114F10471F09B
:103A6000D7011396FC93EE93129776CF22968C0F84
:103A70009D1FF90191838083F301EFCFF09332030F
:103A8000E093310369CF4816590608F42C017D01F3
:103A9000D3019ACFCB010E947A1B7C01009749F099
:103AA000AE01B8010E945C1DC8010E94161C87016E
:103AB00053CF10E000E050CFFB01DC0102C00190C9
:103AC0000D9241505040D8F70895FC01819186171E
:103AD00021F08823D9F7992708953197CF010895C8
:103AE000FB01DC018D91019080190110D9F3990B34
:103AF0000895FB01DC0101900D920020E1F708958B
:103B0000FC0181E090E00190061609F4CF0100204D
:103B1000D1F70197089511E0C6E3D1E004C0FE019A
:103B20000E94741B2196C733D107C9F7F894FFCFC1
:103B30000A0000000000330380000000000065065A
:103B40000203040509080706000000005102A8014D
:103B5000DE019E020F02ED01010222225C5C62087E
:103B6000660C6E0A720D74090041542B4349504390
:103B70004C4F5345004552524F520D0A00434F4E91
:103B80004E454354204F4B0D0A005B5D496E7365F3
:103B9000727473656E736F722D7B2273656E736FB3
:103BA00072223A7B007D7D0041542B43495053459E
:103BB0004E44003E200053454E44204F4B00434CA2
:103BC0004F5345204F4B0D0A005B5D557064617487
:103BD00065496E666F2D7B002268756D6931223AEA
:103BE0002200222C2274656D7031223A2200222C90
:103BF000226D6F697331223A2200222C226D6F6987
:103C00007332223A2200222C226D6F697333223ADA
:103C1000220022696E5F76616C223A5B002C005DA7
:103C2000005B5D4374726C4750494F00696E746568
:103C30007276616C006770696F0041542B43474195
:103C400054543F002B43474154543A20310D0A004D
:103C50002273736E223A2200222C22696D6569223A
:043C60003A22000004
:107E0000112484B714BE81FFF0D085E080938100F7
:107E100082E08093C00088E18093C10086E0809377
:107E2000C20080E18093C4008EE0C9D0259A86E02C
:107E300020E33CEF91E0309385002093840096BBD3
:107E4000B09BFECF1D9AA8958150A9F7CC24DD24C4
:107E500088248394B5E0AB2EA1E19A2EF3E0BF2EE7
:107E6000A2D0813461F49FD0082FAFD0023811F036
:107E7000013811F484E001C083E08DD089C08234E0
:107E800011F484E103C0853419F485E0A6D080C0E4
:107E9000853579F488D0E82EFF2485D0082F10E0AE
:107EA000102F00270E291F29000F111F8ED06801E7
:107EB0006FC0863521F484E090D080E0DECF843638
:107EC00009F040C070D06FD0082F6DD080E0C81688
:107ED00080E7D80618F4F601B7BEE895C0E0D1E017
:107EE00062D089930C17E1F7F0E0CF16F0E7DF06D8
:107EF00018F0F601B7BEE89568D007B600FCFDCFD4
:107F0000A601A0E0B1E02C9130E011968C91119780
:107F100090E0982F8827822B932B1296FA010C0160
:107F200087BEE89511244E5F5F4FF1E0A038BF0790
:107F300051F7F601A7BEE89507B600FCFDCF97BE46
:107F4000E89526C08437B1F42ED02DD0F82E2BD052
:107F50003CD0F601EF2C8F010F5F1F4F84911BD097
:107F6000EA94F801C1F70894C11CD11CFA94CF0C13
:107F7000D11C0EC0853739F428D08EE10CD085E9AC
:107F80000AD08FE07ACF813511F488E018D01DD067
:107F900080E101D065CF982F8091C00085FFFCCF94
:107FA0009093C60008958091C00087FFFCCF809118
:107FB000C00084FD01C0A8958091C6000895E0E648
:107FC000F0E098E1908380830895EDDF803219F02E
:107FD00088E0F5DFFFCF84E1DECF1F93182FE3DFCA
:107FE0001150E9F7F2DF1F91089580E0E8DFEE27F6
:047FF000FF270994CA
:027FFE00040479
:0400000300007E007B
:00000001FF
